{
  "_format": "hh-sol-artifact-1",
  "contractName": "SmartBank",
  "sourceName": "contracts/SmartBank.sol",
  "abi": [
    {
      "inputs": [
        {
          "internalType": "address",
          "name": "_stakingToken",
          "type": "address"
        },
        {
          "internalType": "address",
          "name": "_rewardsToken",
          "type": "address"
        }
      ],
      "stateMutability": "nonpayable",
      "type": "constructor"
    },
    {
      "inputs": [
        {
          "internalType": "address",
          "name": "",
          "type": "address"
        }
      ],
      "name": "balances",
      "outputs": [
        {
          "internalType": "uint256",
          "name": "",
          "type": "uint256"
        }
      ],
      "stateMutability": "view",
      "type": "function"
    },
    {
      "inputs": [
        {
          "internalType": "address",
          "name": "account",
          "type": "address"
        }
      ],
      "name": "earned",
      "outputs": [
        {
          "internalType": "uint256",
          "name": "",
          "type": "uint256"
        }
      ],
      "stateMutability": "view",
      "type": "function"
    },
    {
      "inputs": [],
      "name": "getReward",
      "outputs": [],
      "stateMutability": "nonpayable",
      "type": "function"
    },
    {
      "inputs": [],
      "name": "lastUpdateTime",
      "outputs": [
        {
          "internalType": "uint256",
          "name": "",
          "type": "uint256"
        }
      ],
      "stateMutability": "view",
      "type": "function"
    },
    {
      "inputs": [],
      "name": "rewardPerToken",
      "outputs": [
        {
          "internalType": "uint256",
          "name": "",
          "type": "uint256"
        }
      ],
      "stateMutability": "view",
      "type": "function"
    },
    {
      "inputs": [],
      "name": "rewardPerTokenStored",
      "outputs": [
        {
          "internalType": "uint256",
          "name": "",
          "type": "uint256"
        }
      ],
      "stateMutability": "view",
      "type": "function"
    },
    {
      "inputs": [],
      "name": "rewardRate",
      "outputs": [
        {
          "internalType": "uint256",
          "name": "",
          "type": "uint256"
        }
      ],
      "stateMutability": "view",
      "type": "function"
    },
    {
      "inputs": [
        {
          "internalType": "address",
          "name": "",
          "type": "address"
        }
      ],
      "name": "rewards",
      "outputs": [
        {
          "internalType": "uint256",
          "name": "",
          "type": "uint256"
        }
      ],
      "stateMutability": "view",
      "type": "function"
    },
    {
      "inputs": [
        {
          "internalType": "uint256",
          "name": "_amount",
          "type": "uint256"
        }
      ],
      "name": "stake",
      "outputs": [],
      "stateMutability": "nonpayable",
      "type": "function"
    },
    {
      "inputs": [],
      "name": "totalSupply",
      "outputs": [
        {
          "internalType": "uint256",
          "name": "",
          "type": "uint256"
        }
      ],
      "stateMutability": "view",
      "type": "function"
    },
    {
      "inputs": [
        {
          "internalType": "address",
          "name": "",
          "type": "address"
        }
      ],
      "name": "userRewardPerTokenPaid",
      "outputs": [
        {
          "internalType": "uint256",
          "name": "",
          "type": "uint256"
        }
      ],
      "stateMutability": "view",
      "type": "function"
    },
    {
      "inputs": [
        {
          "internalType": "uint256",
          "name": "_amount",
          "type": "uint256"
        }
      ],
      "name": "withdraw",
      "outputs": [],
      "stateMutability": "nonpayable",
      "type": "function"
    }
  ],
  "bytecode": "0x6080604052600160025534801561001557600080fd5b50604051610f31380380610f31833981810160405281019061003791906100d4565b81600160006101000a81548173ffffffffffffffffffffffffffffffffffffffff021916908373ffffffffffffffffffffffffffffffffffffffff160217905550806000806101000a81548173ffffffffffffffffffffffffffffffffffffffff021916908373ffffffffffffffffffffffffffffffffffffffff1602179055505050610159565b6000815190506100ce81610142565b92915050565b600080604083850312156100e757600080fd5b60006100f5858286016100bf565b9250506020610106858286016100bf565b9150509250929050565b600061011b82610122565b9050919050565b600073ffffffffffffffffffffffffffffffffffffffff82169050919050565b61014b81610110565b811461015657600080fd5b50565b610dc9806101686000396000f3fe608060405234801561001057600080fd5b50600436106100b35760003560e01c80637b0a47ee116100715780637b0a47ee1461018c5780638b876347146101aa578063a694fc3a146101da578063c8f33c91146101f6578063cd3daf9d14610214578063df136d6514610232576100b3565b80628cc262146100b85780630700037d146100e857806318160ddd1461011857806327e235e3146101365780632e1a7d4d146101665780633d18b91214610182575b600080fd5b6100d260048036038101906100cd9190610a7f565b610250565b6040516100df9190610b78565b60405180910390f35b61010260048036038101906100fd9190610a7f565b610352565b60405161010f9190610b78565b60405180910390f35b61012061036a565b60405161012d9190610b78565b60405180910390f35b610150600480360381019061014b9190610a7f565b610370565b60405161015d9190610b78565b60405180910390f35b610180600480360381019061017b9190610ad1565b610388565b005b61018a610553565b005b610194610736565b6040516101a19190610b78565b60405180910390f35b6101c460048036038101906101bf9190610a7f565b61073c565b6040516101d19190610b78565b60405180910390f35b6101f460048036038101906101ef9190610ad1565b610754565b005b6101fe6109d1565b60405161020b9190610b78565b60405180910390f35b61021c6109d7565b6040516102299190610b78565b60405180910390f35b61023a610a3a565b6040516102479190610b78565b60405180910390f35b6000600760008373ffffffffffffffffffffffffffffffffffffffff1673ffffffffffffffffffffffffffffffffffffffff16815260200190815260200160002054670de0b6b3a7640000600860008573ffffffffffffffffffffffffffffffffffffffff1673ffffffffffffffffffffffffffffffffffffffff168152602001908152602001600020546102e36109d7565b6102ed9190610c74565b600660008673ffffffffffffffffffffffffffffffffffffffff1673ffffffffffffffffffffffffffffffffffffffff168152602001908152602001600020546103379190610c1a565b6103419190610be9565b61034b9190610b93565b9050919050565b60076020528060005260406000206000915090505481565b60055481565b60066020528060005260406000206000915090505481565b336103916109d7565b600481905550426003819055506103a781610250565b600760008373ffffffffffffffffffffffffffffffffffffffff1673ffffffffffffffffffffffffffffffffffffffff16815260200190815260200160002081905550600454600860008373ffffffffffffffffffffffffffffffffffffffff1673ffffffffffffffffffffffffffffffffffffffff1681526020019081526020016000208190555081600560008282546104429190610c74565b9250508190555081600660003373ffffffffffffffffffffffffffffffffffffffff1673ffffffffffffffffffffffffffffffffffffffff16815260200190815260200160002060008282546104989190610c74565b92505081905550600160009054906101000a900473ffffffffffffffffffffffffffffffffffffffff1673ffffffffffffffffffffffffffffffffffffffff1663a9059cbb33846040518363ffffffff1660e01b81526004016104fc929190610b4f565b602060405180830381600087803b15801561051657600080fd5b505af115801561052a573d6000803e3d6000fd5b505050506040513d601f19601f8201168201806040525081019061054e9190610aa8565b505050565b3361055c6109d7565b6004819055504260038190555061057281610250565b600760008373ffffffffffffffffffffffffffffffffffffffff1673ffffffffffffffffffffffffffffffffffffffff16815260200190815260200160002081905550600454600860008373ffffffffffffffffffffffffffffffffffffffff1673ffffffffffffffffffffffffffffffffffffffff168152602001908152602001600020819055506000600760003373ffffffffffffffffffffffffffffffffffffffff1673ffffffffffffffffffffffffffffffffffffffff1681526020019081526020016000205490506000600760003373ffffffffffffffffffffffffffffffffffffffff1673ffffffffffffffffffffffffffffffffffffffff1681526020019081526020016000208190555060008054906101000a900473ffffffffffffffffffffffffffffffffffffffff1673ffffffffffffffffffffffffffffffffffffffff1663a9059cbb33836040518363ffffffff1660e01b81526004016106df929190610b4f565b602060405180830381600087803b1580156106f957600080fd5b505af115801561070d573d6000803e3d6000fd5b505050506040513d601f19601f820116820180604052508101906107319190610aa8565b505050565b60025481565b60086020528060005260406000206000915090505481565b3361075d6109d7565b6004819055504260038190555061077381610250565b600760008373ffffffffffffffffffffffffffffffffffffffff1673ffffffffffffffffffffffffffffffffffffffff16815260200190815260200160002081905550600454600860008373ffffffffffffffffffffffffffffffffffffffff1673ffffffffffffffffffffffffffffffffffffffff16815260200190815260200160002081905550816005600082825461080e9190610b93565b9250508190555081600660003373ffffffffffffffffffffffffffffffffffffffff1673ffffffffffffffffffffffffffffffffffffffff16815260200190815260200160002060008282546108649190610b93565b92505081905550600160009054906101000a900473ffffffffffffffffffffffffffffffffffffffff1673ffffffffffffffffffffffffffffffffffffffff1663095ea7b330846040518363ffffffff1660e01b81526004016108c8929190610b4f565b602060405180830381600087803b1580156108e257600080fd5b505af11580156108f6573d6000803e3d6000fd5b505050506040513d601f19601f8201168201806040525081019061091a9190610aa8565b50600160009054906101000a900473ffffffffffffffffffffffffffffffffffffffff1673ffffffffffffffffffffffffffffffffffffffff166323b872dd3330856040518463ffffffff1660e01b815260040161097a93929190610b18565b602060405180830381600087803b15801561099457600080fd5b505af11580156109a8573d6000803e3d6000fd5b505050506040513d601f19601f820116820180604052508101906109cc9190610aa8565b505050565b60035481565b60008060055414156109ec5760009050610a37565b600554670de0b6b3a764000060035442610a069190610c74565b600254610a139190610c1a565b610a1d9190610c1a565b610a279190610be9565b600454610a349190610b93565b90505b90565b60045481565b600081359050610a4f81610d4e565b92915050565b600081519050610a6481610d65565b92915050565b600081359050610a7981610d7c565b92915050565b600060208284031215610a9157600080fd5b6000610a9f84828501610a40565b91505092915050565b600060208284031215610aba57600080fd5b6000610ac884828501610a55565b91505092915050565b600060208284031215610ae357600080fd5b6000610af184828501610a6a565b91505092915050565b610b0381610ca8565b82525050565b610b1281610ce6565b82525050565b6000606082019050610b2d6000830186610afa565b610b3a6020830185610afa565b610b476040830184610b09565b949350505050565b6000604082019050610b646000830185610afa565b610b716020830184610b09565b9392505050565b6000602082019050610b8d6000830184610b09565b92915050565b6000610b9e82610ce6565b9150610ba983610ce6565b9250827fffffffffffffffffffffffffffffffffffffffffffffffffffffffffffffffff03821115610bde57610bdd610cf0565b5b828201905092915050565b6000610bf482610ce6565b9150610bff83610ce6565b925082610c0f57610c0e610d1f565b5b828204905092915050565b6000610c2582610ce6565b9150610c3083610ce6565b9250817fffffffffffffffffffffffffffffffffffffffffffffffffffffffffffffffff0483118215151615610c6957610c68610cf0565b5b828202905092915050565b6000610c7f82610ce6565b9150610c8a83610ce6565b925082821015610c9d57610c9c610cf0565b5b828203905092915050565b6000610cb382610cc6565b9050919050565b60008115159050919050565b600073ffffffffffffffffffffffffffffffffffffffff82169050919050565b6000819050919050565b7f4e487b7100000000000000000000000000000000000000000000000000000000600052601160045260246000fd5b7f4e487b7100000000000000000000000000000000000000000000000000000000600052601260045260246000fd5b610d5781610ca8565b8114610d6257600080fd5b50565b610d6e81610cba565b8114610d7957600080fd5b50565b610d8581610ce6565b8114610d9057600080fd5b5056fea2646970667358221220ff752f15a77e7ad3d9651354ba9edd25bfeac530ddfb92f1310e4c985b0071b064736f6c63430008040033",
  "linkReferences": {},
  "deployedLinkReferences": {}
}